{
  "_format": "hh-sol-artifact-1",
  "contractName": "Airdrop",
  "sourceName": "contracts/Airdrop.sol",
  "abi": [
    {
      "inputs": [],
      "stateMutability": "nonpayable",
      "type": "constructor"
    },
    {
      "inputs": [
        {
          "internalType": "address",
          "name": "token",
          "type": "address"
        },
        {
          "internalType": "address[]",
          "name": "_recipients",
          "type": "address[]"
        },
        {
          "internalType": "uint256[]",
          "name": "_values",
          "type": "uint256[]"
        }
      ],
      "name": "airdrop",
      "outputs": [],
      "stateMutability": "nonpayable",
      "type": "function"
    }
  ],
  "bytecode": "0x608060405234801561001057600080fd5b506106aa806100206000396000f3fe608060405234801561001057600080fd5b506004361061002b5760003560e01c8063025ff12f14610030575b600080fd5b61004a6004803603810190610045919061032b565b61004c565b005b81819050848490501461005e57600080fd5b60005b828290508110156100ca576100b786868684818110610083576100826103c0565b5b905060200201602081019061009891906103ef565b8585858181106100ab576100aa6103c0565b5b905060200201356100d2565b80806100c290610455565b915050610061565b505050505050565b6000808473ffffffffffffffffffffffffffffffffffffffff1663a9059cbb85856040516024016101049291906104bb565b6040516020818303038152906040529060e01b6020820180517bffffffffffffffffffffffffffffffffffffffffffffffffffffffff83818316178352505050506040516101529190610555565b6000604051808303816000865af19150503d806000811461018f576040519150601f19603f3d011682016040523d82523d6000602084013e610194565b606091505b50915091508180156101c257506000815114806101c15750808060200190518101906101c091906105a4565b5b5b610201576040517f08c379a00000000000000000000000000000000000000000000000000000000081526004016101f890610654565b60405180910390fd5b5050505050565b600080fd5b600080fd5b600073ffffffffffffffffffffffffffffffffffffffff82169050919050565b600061023d82610212565b9050919050565b61024d81610232565b811461025857600080fd5b50565b60008135905061026a81610244565b92915050565b600080fd5b600080fd5b600080fd5b60008083601f84011261029557610294610270565b5b8235905067ffffffffffffffff8111156102b2576102b1610275565b5b6020830191508360208202830111156102ce576102cd61027a565b5b9250929050565b60008083601f8401126102eb576102ea610270565b5b8235905067ffffffffffffffff81111561030857610307610275565b5b6020830191508360208202830111156103245761032361027a565b5b9250929050565b60008060008060006060868803121561034757610346610208565b5b60006103558882890161025b565b955050602086013567ffffffffffffffff8111156103765761037561020d565b5b6103828882890161027f565b9450945050604086013567ffffffffffffffff8111156103a5576103a461020d565b5b6103b1888289016102d5565b92509250509295509295909350565b7f4e487b7100000000000000000000000000000000000000000000000000000000600052603260045260246000fd5b60006020828403121561040557610404610208565b5b60006104138482850161025b565b91505092915050565b7f4e487b7100000000000000000000000000000000000000000000000000000000600052601160045260246000fd5b6000819050919050565b60006104608261044b565b91507fffffffffffffffffffffffffffffffffffffffffffffffffffffffffffffffff82036104925761049161041c565b5b600182019050919050565b6104a681610232565b82525050565b6104b58161044b565b82525050565b60006040820190506104d0600083018561049d565b6104dd60208301846104ac565b9392505050565b600081519050919050565b600081905092915050565b60005b838110156105185780820151818401526020810190506104fd565b60008484015250505050565b600061052f826104e4565b61053981856104ef565b93506105498185602086016104fa565b80840191505092915050565b60006105618284610524565b915081905092915050565b60008115159050919050565b6105818161056c565b811461058c57600080fd5b50565b60008151905061059e81610578565b92915050565b6000602082840312156105ba576105b9610208565b5b60006105c88482850161058f565b91505092915050565b600082825260208201905092915050565b7f5472616e7366657248656c7065723a3a736166655472616e736665723a20747260008201527f616e73666572206661696c656400000000000000000000000000000000000000602082015250565b600061063e602d836105d1565b9150610649826105e2565b604082019050919050565b6000602082019050818103600083015261066d81610631565b905091905056fea2646970667358221220c24ccb384eccfbabf1a1b348503f5e225403d8dcde01e2bfbe20f596a5522ac064736f6c63430008130033",
  "linkReferences": {},
  "deployedLinkReferences": {}
}