{
  "_format": "hh-sol-artifact-1",
  "contractName": "AdminAirdrop",
  "sourceName": "contracts/AdminAirdrop.sol",
  "abi": [
    {
      "inputs": [],
      "stateMutability": "nonpayable",
      "type": "constructor"
    },
    {
      "anonymous": false,
      "inputs": [
        {
          "indexed": true,
          "internalType": "address",
          "name": "previousOwner",
          "type": "address"
        },
        {
          "indexed": true,
          "internalType": "address",
          "name": "newOwner",
          "type": "address"
        }
      ],
      "name": "OwnershipTransferred",
      "type": "event"
    },
    {
      "inputs": [
        {
          "internalType": "address",
          "name": "token",
          "type": "address"
        },
        {
          "internalType": "address[]",
          "name": "_recipients",
          "type": "address[]"
        },
        {
          "internalType": "uint256[]",
          "name": "_values",
          "type": "uint256[]"
        }
      ],
      "name": "airdrop",
      "outputs": [],
      "stateMutability": "nonpayable",
      "type": "function"
    },
    {
      "inputs": [],
      "name": "owner",
      "outputs": [
        {
          "internalType": "address",
          "name": "",
          "type": "address"
        }
      ],
      "stateMutability": "view",
      "type": "function"
    },
    {
      "inputs": [],
      "name": "renounceOwnership",
      "outputs": [],
      "stateMutability": "nonpayable",
      "type": "function"
    },
    {
      "inputs": [
        {
          "internalType": "address",
          "name": "newOwner",
          "type": "address"
        }
      ],
      "name": "transferOwnership",
      "outputs": [],
      "stateMutability": "nonpayable",
      "type": "function"
    },
    {
      "inputs": [
        {
          "internalType": "address",
          "name": "token",
          "type": "address"
        },
        {
          "internalType": "address",
          "name": "to",
          "type": "address"
        },
        {
          "internalType": "uint256",
          "name": "tokenAmount",
          "type": "uint256"
        }
      ],
      "name": "withdrawTokens",
      "outputs": [],
      "stateMutability": "nonpayable",
      "type": "function"
    }
  ],
  "bytecode": "0x608060405234801561001057600080fd5b5061002d61002261003260201b60201c565b61003a60201b60201c565b6100fe565b600033905090565b60008060009054906101000a900473ffffffffffffffffffffffffffffffffffffffff169050816000806101000a81548173ffffffffffffffffffffffffffffffffffffffff021916908373ffffffffffffffffffffffffffffffffffffffff1602179055508173ffffffffffffffffffffffffffffffffffffffff168173ffffffffffffffffffffffffffffffffffffffff167f8be0079c531659141344cd1fd0a4f28419497f9722a3daafe3b4186f6b6457e060405160405180910390a35050565b610b6c8061010d6000396000f3fe608060405234801561001057600080fd5b50600436106100575760003560e01c8063025ff12f1461005c5780635e35359e14610078578063715018a6146100945780638da5cb5b1461009e578063f2fde38b146100bc575b600080fd5b61007660048036038101906100719190610655565b6100d8565b005b610092600480360381019061008d9190610720565b610166565b005b61009c6101f2565b005b6100a6610206565b6040516100b39190610782565b60405180910390f35b6100d660048036038101906100d1919061079d565b61022f565b005b6100e06102b2565b8181905084849050146100f257600080fd5b60005b8282905081101561015e5761014b86868684818110610117576101166107ca565b5b905060200201602081019061012c919061079d565b85858581811061013f5761013e6107ca565b5b90506020020135610330565b808061015690610828565b9150506100f5565b505050505050565b61016e6102b2565b8273ffffffffffffffffffffffffffffffffffffffff1663a9059cbb83836040518363ffffffff1660e01b81526004016101a992919061087f565b6020604051808303816000875af11580156101c8573d6000803e3d6000fd5b505050506040513d601f19601f820116820180604052508101906101ec91906108e0565b50505050565b6101fa6102b2565b6102046000610466565b565b60008060009054906101000a900473ffffffffffffffffffffffffffffffffffffffff16905090565b6102376102b2565b600073ffffffffffffffffffffffffffffffffffffffff168173ffffffffffffffffffffffffffffffffffffffff16036102a6576040517f08c379a000000000000000000000000000000000000000000000000000000000815260040161029d90610990565b60405180910390fd5b6102af81610466565b50565b6102ba61052a565b73ffffffffffffffffffffffffffffffffffffffff166102d8610206565b73ffffffffffffffffffffffffffffffffffffffff161461032e576040517f08c379a0000000000000000000000000000000000000000000000000000000008152600401610325906109fc565b60405180910390fd5b565b6000808473ffffffffffffffffffffffffffffffffffffffff1663a9059cbb858560405160240161036292919061087f565b6040516020818303038152906040529060e01b6020820180517bffffffffffffffffffffffffffffffffffffffffffffffffffffffff83818316178352505050506040516103b09190610a8d565b6000604051808303816000865af19150503d80600081146103ed576040519150601f19603f3d011682016040523d82523d6000602084013e6103f2565b606091505b5091509150818015610420575060008151148061041f57508080602001905181019061041e91906108e0565b5b5b61045f576040517f08c379a000000000000000000000000000000000000000000000000000000000815260040161045690610b16565b60405180910390fd5b5050505050565b60008060009054906101000a900473ffffffffffffffffffffffffffffffffffffffff169050816000806101000a81548173ffffffffffffffffffffffffffffffffffffffff021916908373ffffffffffffffffffffffffffffffffffffffff1602179055508173ffffffffffffffffffffffffffffffffffffffff168173ffffffffffffffffffffffffffffffffffffffff167f8be0079c531659141344cd1fd0a4f28419497f9722a3daafe3b4186f6b6457e060405160405180910390a35050565b600033905090565b600080fd5b600080fd5b600073ffffffffffffffffffffffffffffffffffffffff82169050919050565b60006105678261053c565b9050919050565b6105778161055c565b811461058257600080fd5b50565b6000813590506105948161056e565b92915050565b600080fd5b600080fd5b600080fd5b60008083601f8401126105bf576105be61059a565b5b8235905067ffffffffffffffff8111156105dc576105db61059f565b5b6020830191508360208202830111156105f8576105f76105a4565b5b9250929050565b60008083601f8401126106155761061461059a565b5b8235905067ffffffffffffffff8111156106325761063161059f565b5b60208301915083602082028301111561064e5761064d6105a4565b5b9250929050565b60008060008060006060868803121561067157610670610532565b5b600061067f88828901610585565b955050602086013567ffffffffffffffff8111156106a05761069f610537565b5b6106ac888289016105a9565b9450945050604086013567ffffffffffffffff8111156106cf576106ce610537565b5b6106db888289016105ff565b92509250509295509295909350565b6000819050919050565b6106fd816106ea565b811461070857600080fd5b50565b60008135905061071a816106f4565b92915050565b60008060006060848603121561073957610738610532565b5b600061074786828701610585565b935050602061075886828701610585565b92505060406107698682870161070b565b9150509250925092565b61077c8161055c565b82525050565b60006020820190506107976000830184610773565b92915050565b6000602082840312156107b3576107b2610532565b5b60006107c184828501610585565b91505092915050565b7f4e487b7100000000000000000000000000000000000000000000000000000000600052603260045260246000fd5b7f4e487b7100000000000000000000000000000000000000000000000000000000600052601160045260246000fd5b6000610833826106ea565b91507fffffffffffffffffffffffffffffffffffffffffffffffffffffffffffffffff8203610865576108646107f9565b5b600182019050919050565b610879816106ea565b82525050565b60006040820190506108946000830185610773565b6108a16020830184610870565b9392505050565b60008115159050919050565b6108bd816108a8565b81146108c857600080fd5b50565b6000815190506108da816108b4565b92915050565b6000602082840312156108f6576108f5610532565b5b6000610904848285016108cb565b91505092915050565b600082825260208201905092915050565b7f4f776e61626c653a206e6577206f776e657220697320746865207a65726f206160008201527f6464726573730000000000000000000000000000000000000000000000000000602082015250565b600061097a60268361090d565b91506109858261091e565b604082019050919050565b600060208201905081810360008301526109a98161096d565b9050919050565b7f4f776e61626c653a2063616c6c6572206973206e6f7420746865206f776e6572600082015250565b60006109e660208361090d565b91506109f1826109b0565b602082019050919050565b60006020820190508181036000830152610a15816109d9565b9050919050565b600081519050919050565b600081905092915050565b60005b83811015610a50578082015181840152602081019050610a35565b60008484015250505050565b6000610a6782610a1c565b610a718185610a27565b9350610a81818560208601610a32565b80840191505092915050565b6000610a998284610a5c565b915081905092915050565b7f5472616e7366657248656c7065723a3a736166655472616e736665723a20747260008201527f616e73666572206661696c656400000000000000000000000000000000000000602082015250565b6000610b00602d8361090d565b9150610b0b82610aa4565b604082019050919050565b60006020820190508181036000830152610b2f81610af3565b905091905056fea2646970667358221220604fc94efc958b1f5c6674171a2edda0ff759a69bcef4cc6b39e5f2313bf4fa664736f6c63430008130033",
  "linkReferences": {},
  "deployedLinkReferences": {}
}